:100000000C94AD000C94DE000C94DE000C94DE0029
:100010000C94DE000C94DE000C94DE000C94DE00E8
:100020000C94DE000C94DE000C94DE000C94DE00D8
:100030000C94DE000C94DE000C94DE000C94DE00C8
:100040000C94DE000C94DE000C94DE000C94DE00B8
:100050000C94DE000C94DE000C94DE000C94EC1189
:100060000C94DE000C94B6110C948C110C94DE00F0
:100070000C94DE000C94DE000C94DE000C94DE0088
:100080000C94DE000C94DE000C94DE000C94DE0078
:100090000C9456110C942C110C94DE000C94DE0080
:1000A0000C94DE000C94DE000C94DE000C94DE0058
:1000B0000C94DE000C94DE000C94DE000C94DE0048
:1000C0000C94DE000C94DE000C94DE000C94DE0038
:1000D0000C94DE000C94DE000C94DE000C94DE0028
:1000E0000C94DE000C94560B0C947A0F0C94930332
:1000F0000C94050E0C9443030C946C0B0C943F026F
:100100000C94490F0C9470030C949A020C943003D5
:100110000C94C6020C94E3030C94480E0C94BF0D8F
:100120000C94BC020C9468020C946F010C9467123E
:100130000C94C10D0C947F030C9430040C944D0F5F
:100140000C94A1030C945F020C944C020C942A03AF
:100150000C9438020C94AE02671211241FBECFEF2C
:10016000D1E2DEBFCDBF00E00CBF28E0ACE6B5E0D9
:1001700001C01D92A238B207E1F715E0A0E0B2E09D
:10018000E2E3F2E300E00BBF02C007900D92AC3651
:10019000B107D9F710E0CDEAD0E000E006C0219722
:1001A0000109802FFE010E94D916CC3AD10780E0C8
:1001B0000807A9F70E94EA120C9417190C94000082
:1001C000CF93DF93EC019A01AB01E889F98982E0D2
:1001D0008083211581EE38074105510581F160E0EA
:1001E00079E08DE390E00E94981621503109410991
:1001F00051095695479537952795EC85FD851082D1
:10020000EE85FF852083188EEC89FD8986E080834A
:10021000EA89FB89808180618083EA89FB8980810A
:1002200088608083EA89FB89808180688083EA898D
:10023000FB8980818F7D8083DF91CF910895E8894C
:10024000F989108220E1D9CF8FB7F8942091520616
:100250003091530640915406509155068FBF8091BE
:10026000580690915906A0915A06B0915B06281B3A
:10027000390B4A0B5B0B21F421E030E040E050E009
:10028000E0915606F091570688EE93E0E89FB001A2
:10029000E99F700DF89F700D1124072E000C880B3C
:1002A000990B0E9498163093980720939707109205
:1002B0005706109256062FB7F894809152069091E7
:1002C0005306A0915406B09155062FBF809358064F
:1002D00090935906A0935A06B0935B06089580E95F
:1002E00091E008959C0180914406811145C01092CF
:1002F0003606109235069FEF9093390690933A0692
:1003000090933B0690933C0690933D0690933E0657
:1003100081E080933F0610924106109240061092B1
:1003200038061092370680914C0690914D06892B25
:1003300031F483E396E090934D0680934C06E09170
:100340003106F0913206309721F083E396E09583F1
:10035000848383E396E09093320680933106109273
:1003600043061092420683E195E090933406809311
:10037000330681E080934406809A309336062093BA
:1003800035067093410660934006809199079091DD
:100390009A07A0919B07B0919C07843C29E09207A3
:1003A000A105B10520F484EC99E0A0E0B0E08093D1
:1003B000990790939A07A0939B07B0939C0783E3B8
:1003C00096E0089520E0DC0160FF03C001C02D939A
:1003D0002D936250E0F77040D0F708958F929F926E
:1003E000AF92BF92CF92DF92EF92FF920F931F9343
:1003F000CF93DF93DC01EB014701E0901406F0900E
:1004000015066D917C9111975701A60EB71EF50147
:100410009081E8E2E90FE33208F031C0F0E088278C
:10042000EB5EFD4F8F4F0C94D916AE02AE02AE02BA
:10043000AE02BC02BC02BC02BC02C602C602C602BC
:10044000C6023F023F02C602C6023F023F02C60288
:10045000C6023F023F02C602C6022A0330033F0221
:100460003F02380238024C023F025F0268029A02E1
:10047000288139812C7F9370292B39832883DF9140
:10048000CF911F910F91FF90EF90DF90CF90BF9091
:10049000AF909F908F900895888199818C7F826022
:1004A00099838883E0911406F09115068D919C91B3
:1004B0001197E80FF91F8181FA01808304C0F501CB
:1004C0008181809328068D919C91119701961FC080
:1004D0008091290690912A0686179707D8F4709381
:1004E0002A0660932906ED91FC911197EE0DFF1DF0
:1004F000818190E0982F88272281820F911D90930F
:100500002E0680932D068D919C91119702968D93C6
:100510009C93B5CF68177907B1F780912D0690911C
:100520002E06892B81F76F5F7F4F70932A066093A9
:100530002906E9CF80912B0690912C068617970704
:1005400010F670932C0660932B068D919C91119759
:10055000E80EF91EF7018181F601AFCF28813981BC
:10056000237FF4E09F9FC00111248C709927822B78
:10057000932B9983888383CF288139812F7C40E115
:10058000949FC001112480739927F1CF488159812C
:100590004F73507F60E4969FC0011124807C93705C
:1005A000842B952B99838883E0911406F09115068E
:1005B0008D919C911197E80FF91F8181F90180833A
:1005C000E0911406F09115068D919C911197E80F1A
:1005D000F91F8281F9018183E0911406F0911506DB
:1005E0008D919C911197E80FF91F8381F901828306
:1005F0008D919C9111979C012D5F3F4F11963C93DB
:100600002E93288127FF3BCFE0911406F091150629
:10061000E80FF91F8481F8018083E0911406F091BE
:1006200015068D919C911197E80FF91F8281F801B1
:100630008183E0911406F09115068D919C9111979C
:10064000E80FF91F8381F80182838D919C911197A6
:1006500003965DCF888199818F73907F946089CF55
:10066000888199818F73907F986099838883E091C6
:100670001406F09115068D919C911197E80FF91FC2
:100680008181F4011ACFAF92BF92CF92DF92EF92A5
:10069000FF920F931F93CF93DF936C017B018B012C
:1006A000040F151FEB015E01AE18BF08C017D1077C
:1006B00059F06991D601ED91FC910190F081E02D06
:1006C000C6011995892B79F7C501DF91CF911F914B
:1006D0000F91FF90EF90DF90CF90BF90AF90089573
:1006E000FC01538D448D252F30E0842F90E0821B38
:1006F000930B541710F0CF96089501970895FC01BD
:10070000918D828D981761F0A28DAE0FBF2FB11D14
:100710005D968C91928D9F5F9F73928F90E008956C
:100720008FEF9FEF0895FC01918D828D981731F026
:10073000828DE80FF11D858D90E008958FEF9FEF7A
:100740000895FC01918D228D892F90E0805C9F4F50
:10075000821B91098F73992708958CE596E00E947A
:10076000A10321E0892B09F420E0822F089589EF6D
:1007700096E00E94A10321E0892B09F420E0822F5A
:100780000895FC01A48DA80FB92FB11DA35ABF4F26
:100790002C91848D90E001968F739927848FA68980
:1007A000B7892C93A089B1898C91837080648C93D4
:1007B000938D848D981306C00288F389E02D808183
:1007C0008F7D80830895EF92FF920F931F93CF93B5
:1007D000DF93EC0181E0888F9B8D8C8D98131AC07C
:1007E000E889F989808185FF15C09FB7F894EE8963
:1007F000FF896083E889F9898081837080648083C0
:100800009FBF81E090E0DF91CF911F910F91FF900A
:10081000EF900895F62E0B8D10E00F5F1F4F0F73B2
:100820001127E02E8C8D8E110CC00FB607FCFACF6D
:10083000E889F989808185FFF5CFCE010E94C10347
:10084000F1CFEB8DEC0FFD2FF11DE35AFF4FF0823E
:100850009FB7F8940B8FEA89FB8980818062CFCFA4
:10086000CF93DF93EC01888D8823B9F0AA89BB89E7
:10087000E889F9898C9185FD03C0808186FD0DC0D2
:100880000FB607FCF7CF8C9185FFF2CF808185FFF3
:10089000EDCFCE010E94C103E9CFDF91CF91089542
:1008A0003FB7F8948091750590917605A0917705F2
:1008B000B091780526B5A89B05C02F3F19F0019689
:1008C000A11DB11D3FBFBA2FA92F982F8827BC01AA
:1008D000CD01620F711D811D911D42E0660F771FD2
:1008E000881F991F4A95D1F708959C01AB01869FF7
:1008F000B001359FC001E0E0349F700D811D9E1F47
:10090000259F700D811D9E1F1124620F731F8E1F66
:100910009E1F0895CF93DF93EC01CB01BA01C81756
:10092000D90748F48C1B9D0B0E9475048C0F9D1FEA
:10093000DF91CF9108959E01281B390BC9010E94B8
:1009400075049E01281B390BC901F2CFCF93DF93A9
:1009500077FD25C0DC0112962D913C91139762170B
:100960007307ECF457FD1BC014962D913C91421770
:100970005307ACF4FC01C681D7810190F081E02DD2
:100980000190F081E02D19959B01220F331FC901C1
:10099000860F971F8C0F9D1FDF91CF9108950896AA
:1009A000FBCFFC012081269F020E20E0211D208329
:1009B0002181269F020E20E0211D21832281269F76
:1009C000020E20E0211D2283112408952F923F92D0
:1009D0004F925F926F927F928F929F92AF92BF924F
:1009E000CF92DF92EF92FF920F931F93CF93DF93FB
:1009F000CDB7DEB7A6970FB6F894DEBF0FBECDBF5A
:100A00001E86009118061091190680911606909185
:100A1000170608171907D8F08FEF9FEFA6960FB6A5
:100A2000F894DEBF0FBECDBFDF91CF911F910F9124
:100A3000FF90EF90DF90CF90BF90AF909F908F90FE
:100A40007F906F905F904F903F902F9008952091EE
:100A50001206309113068091100690911106281B02
:100A6000390B2F5F3F4F032E000C440B550BCC244A
:100A7000CA94DC2CE12CF12CC701B6010E94BA16F5
:100A80003E8F2D8F20910E0630910F0680910C061F
:100A900090910D06281B390B2F5F3F4F032E000C42
:100AA000440B550BC701B6010E94BA1638A32F8F0D
:100AB00080912D0690912E06892B71F5809130063C
:100AC000882309F461C11092300680911E068111BD
:100AD00023C080911F0681111FC08091180690913C
:100AE0001906209116063091170682179307A0F475
:100AF000E0911406F0911506E80FF91F308120915E
:100B0000070640911C0650911D068417950708F4AE
:100B10008EC1231708F48DC180911A0690911B068F
:100B20009C012073332740911806509119062031FB
:100B3000310541F060911606709117064617570768
:100B400008F06ACF5B874A879D878C878091200653
:100B5000888B8091220690912306A09124068F8392
:100B60009887A9878091250690912606A09127064F
:100B70008C839D83AE83809121068F8780911F0691
:100B800090E02033310509F072C16090100670903A
:100B90001106681A790A10921D0610921C0653015C
:100BA000AE01465F5F4F5A8B498B50911E065E8B9C
:100BB0008C859D858073992720900E0630900F06B6
:100BC000409721F020900C0630900D06E09116061B
:100BD000F0911706F88FEF8B4A845B84E09114063E
:100BE000F0911506E40DF51D8081909106068C8428
:100BF0009D842F89388D4216530608F06FC18917DE
:100C000028F020910706281708F068C1AE01425F5E
:100C10005F4F6A01BE01615F7F4F7B018E010C5FF8
:100C20001F4F9E01295F3F4F4E5F5F4F6350710919
:100C3000CE010A960E94EE012A853B852F5F3F4F29
:100C40003B872A878091290690912A0603962817C8
:100C5000390709F013C180912D0690912E06892B3A
:100C600009F40CC180911606909117069B878A871C
:100C700020900E0630900F067FEF271A370A6091FA
:100C80000C0670910D06261637068CF080910E0624
:100C900090910F068215930554F02091160630911D
:100CA00017068A859B852817390708F08FCF4E894C
:100CB000442329F08A859B8501969B878A878091AA
:100CC0001C0690911D06892B31F48A859B85909393
:100CD0001D0680931C068C859D8580739927409105
:100CE0001006509111068033910509F092C4C50198
:100CF00001963C01841795078CF0209112063091E3
:100D000013062817390754F0E0911606F0911706DC
:100D10002A853B852E173F0708F447CF20912D06E3
:100D200030912E062115310509F47CC4215031097A
:100D300030932E0620932D0620911A0630911B0623
:100D400034FF1FC0E0911606F09117062A853B85F7
:100D5000E217F307B0F48417950744F020911206C8
:100D600030911306281739070CF056CE2616370691
:100D700044F080910E0690910F06821593050CF0B9
:100D80004BCE8E8590E04ACE80912F06909104063E
:100D90008823C9F0E0911406F0911506E00FF11FC9
:100DA000808190910606891B990B40910906489F06
:100DB0009001499F300D1124E0910A06F0910B0635
:100DC000E20FF31F908140911A0650911B069A0181
:100DD0002870332745FD19C080911E068F5F8093D0
:100DE0001E06232B79F4981710F410921E0680919A
:100DF0001E06811191CE0F5F1F4F10931D060093A9
:100E00001C0663CE90910506EECF80911F068F5F82
:100E100080931F06232B41F490910506981708F044
:100E200054CE10921F0651CE9817D8F34ECE2317EA
:100E3000A0F49E01225F3F4F690161E2E62E66E069
:100E4000F62E05E216E022E236E040E256E06AE1E4
:100E500076E088E196E00E94EE018091180690917C
:100E600019060196909319068093180636CE609065
:100E7000120670901306680E791E8DCE8C859D85A6
:100E800040911A0650911B0654FF09C08F7CE0E385
:100E90008E229924882A992A9D868C86F0CE8825D0
:100EA000992580739927892B09F4E9CE80911C0636
:100EB00090911D06892B21F430931D0620931C066A
:100EC00080911606909117069B878A8720900E06C0
:100ED00030900F06FFEF2F1A3F0ADECF891B990BC8
:100EE00020910906289FF001299FF00D112480917F
:100EF0002F06882309F442C0A0910A06B0910B0680
:100F0000AE0FBF1F2C912B8B3196C401887099278F
:100F100037FC0AC0A0910206B091030612962D91EB
:100F20003C912216330674F1892B19F07091050655
:100F30007B8B9E899F5F9E8BEB89E91730F48A85B6
:100F40009B8501969B878A871E8A40911606509141
:100F500017068A859B852C853D8520733327203194
:100F6000310509F44AC3FFEF2F1A3F0A841795078A
:100F700009F085CE01969B878A8781CE3091040641
:100F80003B8BC3CF740140E3E422FF245CE0852265
:100F90009924409105066E89062F10E0892B69F18E
:100FA0005B89C52ED12C60E3E616F10409F044C13B
:100FB0005301AC0CBD1C80910806282F30E03C8BFF
:100FC0002B8B38E08316910409F043C150E1E516FC
:100FD000F10409F035C1842F90E0801B910B2B891F
:100FE0003C89829F4001839F900C929F900C11241A
:100FF0008E0E9F1E30E83D8B2EC0C42ED12C80E378
:10100000E816F10451F55301AC0CBD1C892809F414
:101010005CC070E1E716F10409F068C09801215046
:101020003109C90168E070E00E94841640E850E090
:1010300002C0559547958A95E2F74D8B37FF02C060
:10104000295F3F4F43E0359527954A95E1F74901E0
:101050008E0E9F1E4B894B8B36C035016C187D0858
:101060008928B9F690E1E916F10479F54B89242F26
:1010700030E0201B310BC90168E070E00E9484164B
:1010800040E850E002C0559547958A95E2F74D8BB0
:1010900037FF02C0295F3F4F53E0359527955A959A
:1010A000E1F7E20FF31F51E0C51AD108809108065D
:1010B0008C9D40018D9D900C11248E0E9F1E60E131
:1010C000E616F104B9F51F8A3CC02E89277080E826
:1010D00090E002C0959587952A95E2F78D8B2E8931
:1010E000269526952695E20FF11DDDCF2B89822FBF
:1010F00090E0AC01401B510B9A0121503109C9010C
:1011000068E070E00E94841640E850E002C0559507
:1011100047958A95E2F74D8B37FF02C0295F3F4F15
:1011200093E0359527959A95E1F749018E0E9F1E1C
:101130004B894B8B2F89388D4216530620F63B89FD
:101140003F8B950126193709032E000C440B550BD4
:101150006FEF7FEF80E090E00E94BA1669013AA33A
:1011600029A3230141E0441A51086B89262F30E05E
:1011700050E040E06FEF7FEF80E090E00E94BA1611
:101180007E89872F90E0829FF001839FF00D929FD0
:10119000F00D1124FCA3EBA3D194C194D108A414A5
:1011A000B5040CF4C6CE57FCF0C1809102069091B4
:1011B0000306FC0124813581421653060CF0E5C17B
:1011C0002C853D85FE894F89F41709F4AFC146147B
:1011D00057040CF4ABC14A145B040CF0A7C1E091B6
:1011E0000A06F0910B06E80DF91D40815D89452343
:1011F00009F49CC1A901407C5F70411564E0560769
:1012000059F04115584009F063C0A201B1010E9494
:10121000A6046F850E94D1048C859D858C709927CA
:10122000009709F4C5C18430910509F0C6C18091C9
:101230000806880E911C8AC135016C187D08BBCE4A
:101240004F015E89859F800C911C112460E86D8B95
:1012500070CF960121503109C90168E070E00E9409
:10126000841660E870E002C0759567958A95E2F78C
:101270006D8B37FF02C0295F3F4F83E0359527957F
:101280008A95E1F749018E0E9F1E70E1E716F10481
:1012900071F401501109EB89FC890E9F90010F9F99
:1012A000300D1E9F300D1124820E931ED4CE842F3C
:1012B00090E0801B910B0197EB89FC898E9F900138
:1012C0008F9F300D9E9F300D1124820E931E31CFC3
:1012D00027FD19C08F819885A98589839A83AB835F
:1012E000FB801A81098180910206909103062C856A
:1012F000A201B10126FD6FC00E94A604FC0100837B
:101300001183F28289CF22273370760121153105AE
:10131000A9F0211581E0380709F041C0809110063D
:1013200090911106F201E81BF90B2D8D3E8DE29F85
:101330007001E39FF00CF29FF00C11249E01295FD5
:101340003F4F3A8F298FAE014C5F5F4F5C8F4B8FC1
:101350008E010F5F1F4FB701609570957EA36DA33F
:10136000E98DFA8D2191FA8FE98FEB8DFC8D9191AA
:10137000FC8FEB8F921748F1A70160E0792F80E096
:10138000922F0E948A04F80190830F5F1F4F2989D2
:101390003A89498D5A8D2417350711F7A1CFEBA053
:1013A000FCA02115324051F280910C0690910D065F
:1013B000B101681B790BEF8DF8A16E9F70016F9FD3
:1013C000F00C7E9FF00C1124B9CF4DA15EA160E01E
:1013D000722F80E0D6CF0E94A604FC01202F220F9E
:1013E000220F220F322F55E5359F030E30E0311DBD
:1013F0001124932F302F3074802F807207FD6DC021
:10140000311157C0811106C0292F2095492F922FE5
:1014100020E004C045E5490F20E09BEA1F3F09F1A9
:10142000112309F47BC0992331F0592F519F050EE8
:1014300050E0511D952F442321F0419F040E40E0C0
:10144000411D222321F0219F020E20E0211D1124A5
:101450001095119F010E10E0111D1124910F410FE5
:10146000210F6FEFF61609F420C030E07F2D7723AF
:1014700021F0779F312D09F03F5F332309F452C0EB
:10148000992331F0592F539F050E50E0511D952F90
:10149000442321F0439F040E40E0411D222321F00C
:1014A000239F020E20E0211D11249083418322837B
:1014B000B3CE81110CC06AEA269F020E20E0211DE6
:1014C00011247BEA721B272F4AEA490FA0CF80E044
:1014D000492F4095292F90E0A1CF311110C08111E3
:1014E0000AC03AEA239F020E20E0211D11244BEA94
:1014F000421B2B5AF0CF292F209540E08FCF81112E
:1015000006C035E5390F2BEA291B932FF6CF8AEA5F
:10151000890F40E025E5291B982F80CF2FEF4FEF53
:101520009FEF9FCF20E040E090E0BFCFA901407344
:1015300055274033510591F4409110065091110602
:1015400046155705ACF44614570494F46FEF461A49
:10155000560A89A19AA1C80ED91E21CE4091120621
:1015600050911306A416B5061CF44A145B046CF4DF
:10157000237033272115310581F4A201B1010E94A6
:10158000A604FC0110821182128246145704F4F260
:101590006E897F89671340CED9CF22303105A9F7F4
:1015A000A201B1010E94A60468890E94D104EDCF76
:1015B00080910806881A9108C9CF8830910569F48E
:1015C0008D89813031F49FEF891A990AE0E8ED8B1B
:1015D000BDCFFD89F695FD8BB9CF0C9709F0B6CF3D
:1015E0002D89203831F431E0831A910841E04D8B88
:1015F000ADCF5D89550F5D8BA9CF21E0221A31084F
:101600008417950709F03BCB3E89332309F437CB88
:10161000B1CC809721F4C30101975C016BCBCA0167
:10162000019768CB20912806222309F485CB30E06E
:101630007FCB0F931F93CF93DF93209173052F5F81
:10164000322F37703093730520FF2BC020E831FD17
:101650002064347009F02062205FFC01EC012396C5
:1016600000E011E06485662329F070E0C8010E9463
:1016700084166F5F6187322F369F030E30E0311D75
:101680001124311110C01682662311F06150618758
:101690003196EC17FD0731F7DF91CF911F910F9134
:1016A000089520E0D4CF31503683EECF40FF0EC0F6
:1016B0004F5F5F4F93E0440F551F9A95E1F7609598
:1016C0007095640F751F90E080E0089583E0440FEB
:1016D000551F8A95E1F7F5CF4F925F926F927F92F7
:1016E0008F92AF92BF92CF92DF92EF920F931F93A0
:1016F000CF93DF933C01EB010E945004F301278557
:101700003089621B730B6A307105B0F3F894E8817D
:10171000F98171B3716061B36E7F61BBCA848F81DF
:101720002C2D281B822F2F83BF844A805B801D8530
:101730000C85DE841F5F0F5FD3949E813885A9845A
:10174000EB844181D20120E0C32F522F322F31810F
:10175000442788943111380F08F43FEF819588941D
:1017600010FD430F4795889411FD430F47958894CA
:1017700012FD430F4795889413FD430F47958894B6
:1017800014FD430F4795889415FD430F47958894A2
:1017900016FD430F4795889417FD430F479588948E
:1017A000232F1111242F8C0D422F002C71BB00C050
:1017B00047FF61BB30812227889400C000C0002C05
:1017C00061BB3111390F00C0002C71BB00C046FF56
:1017D00061BB08F43FEF9195889400C000C0002CD5
:1017E00061BB00FD230F00C0002C71BB00C045FF92
:1017F00061BB2795889401FD230F00C000C0002C19
:1018000061BB2795889400C0002C71BB00C044FFC9
:1018100061BB02FD230F2795889400C000C0002CF7
:1018200061BB03FD230F00C0002C71BB00C043FF50
:1018300061BB2795889404FD230F00C000C0002CD5
:1018400061BB2795889400C0002C71BB00C042FF8B
:1018500061BB05FD230F2795889400C000C0002CB4
:1018600061BB06FD230F00C0002C71BB00C041FF0F
:1018700061BB2795889407FD230F00C000C0002C92
:1018800061BB2795889400C0002C71BB00C040FF4D
:1018900061BB432F0111422F9A0D00C000C0002CE4
:1018A00061BB00C000C0002C71BB00C047FF61BB22
:1018B00032812227889400C000C0002C61BB311106
:1018C0003C0F00C0002C71BB00C046FF61BB08F498
:1018D0003FEFEB0DF11D00C000C0002C61BBD0FC40
:1018E000230F00C0002C71BB00C045FF61BB2795D2
:1018F0008894D1FC230F00C000C0002C61BB279549
:10190000889400C0002C71BB00C044FF61BBD2FCB6
:10191000230F2795889400C000C0002C61BBD3FC26
:10192000230F00C0002C71BB00C043FF61BB279593
:101930008894D4FC230F00C000C0002C61BB279505
:10194000889400C0002C71BB00C042FF61BBD5FC75
:10195000230F2795889400C000C0002C61BBD6FCE3
:10196000230F00C0002C71BB00C041FF61BB279555
:101970008894D7FC230F00C000C0002C61BB2795C2
:10198000889400C0002C71BB00C040FF61BB432F96
:10199000D110422FC19500C000C0002C61BBCE0DFC
:1019A00000C000C071BB00C047FF61BB318122276E
:1019B000889400C000C0002C61BB3111380F00C0FA
:1019C000002C71BB00C046FF61BB08F43FEF81955E
:1019D000889400C000C0002C61BB10FD230F00C024
:1019E000002C71BB00C045FF61BB2795889411FD99
:1019F000230F00C000C0002C61BB2795889400C055
:101A0000002C71BB00C044FF61BB12FD230F279562
:101A1000889400C000C0002C61BB13FD230F00C0E0
:101A2000002C71BB00C043FF61BB2795889414FD57
:101A3000230F00C000C0002C61BB2795889400C014
:101A4000002C71BB00C042FF61BB15FD230F279521
:101A5000889400C000C0002C61BB16FD230F00C09D
:101A6000002C71BB00C041FF61BB2795889417FD16
:101A7000230F00C000C0002C61BB2795889400C0D4
:101A8000002C71BB00C040FF61BB432F1111422FDE
:101A90008C0D00C000C0002C61BB119709F086CEF0
:101AA00020EE31E0D2010E94E116DC01CB01F4E02E
:101AB000B695A79597958795FA95D1F730E020E0F0
:101AC000B901EAE94E9E040C611D5E9E600D711D18
:101AD0001124650D711D860F971FA11DB11D893E33
:101AE00043E09407A105B10508F434C0885E934033
:101AF000A109B10942E0B695A795979587954A95B2
:101B0000D1F747E0849F080E211D949F200D311DC1
:101B10001124290F311D6091720570E0860F971F07
:101B2000820F931F409152065091530660915406C4
:101B300070915506292F3327420F531F611D711DC8
:101B40004093520650935306609354067093550683
:101B50008093720578940E945004F301708B67871C
:101B6000DF91CF911F910F91EF90DF90CF90BF90B9
:101B7000AF908F907F906F905F904F900895809A74
:101B80000895EF92FF920F931F93CF93DF93CDB7FA
:101B9000DEB762970FB6F894DEBF0FBECDBF7C01F3
:101BA000DC011C968C917A8369835C834B835E8312
:101BB0004D830D871E872F87813001F5CE01019659
:101BC0000E94190B83E0888B1A8A198AD701ED913C
:101BD000FC910484F585E02DBE016F5F7F4FC70146
:101BE000199562960FB6F894DEBF0FBECDBFDF9198
:101BF000CF911F910F91FF90EF9008951C861B8647
:101C00001A86198618861F82DDCFEF92FF920F93F6
:101C10001F93CF93DF93CDB7DEB762970FB6F894DB
:101C2000DEBF0FBECDBF7C01DC011C968C917A8398
:101C300069835C834B835E834D830D871E872F876B
:101C40008130F9F4CE0101960E94190B188A1A8A84
:101C5000198AD701ED91FC910484F585E02DBE0130
:101C60006F5F7F4FC701199562960FB6F894DEBF7C
:101C70000FBECDBFDF91CF911F910F91FF90EF90DD
:101C800008951C861B861A86198618861F82DECF49
:101C900090E080E008954F925F926F927F928F92D2
:101CA0009F92AF92BF92CF92DF92EF92FF920F93EB
:101CB0001F93CF93DF9300D0CDB7DEB76A011982AF
:101CC0001A821B828823C9F18B01E1E0F0E0482EE3
:101CD000512C712C612CD8012D918D01222349F1B9
:101CE0007F01B1E0EB1AF108D601AE0DBF1D8C905B
:101CF0008820F9F030E050E040E02F5F3F4F4F4F39
:101D00005F4FC301B2010E9474169B01AC01912C7C
:101D1000B12CA12CC501B4016F5F7F4F8F4F9F4F36
:101D20000E947416A1E0B0E0AC0FBD1FAE0DBF1D48
:101D30008C933196E430F10571F669817A818B815B
:101D40000F900F900F90DF91CF911F910F91FF9007
:101D5000EF90DF90CF90BF90AF909F908F907F904B
:101D60006F905F904F900895CF92DF92EF92FF9225
:101D70000F931F93CF93DF93F82E80919907909143
:101D80009A07A0919B07B0919C07892B8A2B8B2BDC
:101D9000D9F00E94500400914E0610914F062091F8
:101DA000500630915106601B710B820B930B009112
:101DB000990710919A0720919B0730919C07601713
:101DC000710782079307C8F20E94500460934E0681
:101DD00070934F068093500690935106E091A107AF
:101DE000F091A207309759F040919D0750919E07BE
:101DF00060919F077091A0078F2D1995F82EC091C3
:101E00004C06D0914D06209721F1EC8480919707E4
:101E1000909198078436910508F41C86E881F98131
:101E2000C280D380AE01475F5F4FBE016A5F7F4FC4
:101E30008F2D0E944B0E8B01282F4D855E856A8168
:101E40007B81CE01F6011995EC860C80DD81C02DD9
:101E5000DACF80915606909157069C012F5F3F4F35
:101E60003093570620935606499754F0DF91CF914F
:101E70001F910F91FF90EF90DF90CF900C94240171
:101E8000DF91CF911F910F91FF90EF90DF90CF9056
:101E90000895FC018585968508950F931F93CF9330
:101EA000DF9300D0CDB7DEB7AB0119821A821B8257
:101EB000DC01ED91FC910190F081E02D00E010E05B
:101EC00020E0BE016F5F7F4F19950F900F900F902C
:101ED000DF91CF911F910F910895FC010190002097
:101EE000E9F73197AF01481B590BBC0189EF96E028
:101EF0000C9443030E9402190F931F93CF93DF9317
:101F0000EC0188819981009759F02A813B8126173D
:101F1000370730F081E0DF91CF911F910F91089545
:101F20008B016F5F7F4F0E942118009759F09983B2
:101F300088831B830A832C813D81232B59F7FC0165
:101F40001082E8CF80E0E7CFEF92FF920F931F93CC
:101F5000CF93DF936115710541F480E0DF91CF915C
:101F60001F910F91FF90EF90089541155105B1F029
:101F70007B01EC010C811D81040F151FB8010E942B
:101F80007C0F882351F3288139818C819D81B70191
:101F9000820F931F0E9410191D830C8381E0DECFF6
:101FA000CF93DF93EC0188819981009711F00E9413
:101FB0009817198218821D821C821B821A82DF9157
:101FC000CF910895CF92DF92EF92FF920F931F93DC
:101FD000CF93DF9300D000D000D0CDB7DEB78C0117
:101FE000862FF801118210821382128215821482C8
:101FF0004AE09E012F5F3F4F6901B90190E00E94C6
:102000001A16F60101900020E9F731977F01EC18CC
:10201000FD08B701C8010E947C0F811112C0C801E0
:102020000E94D00F29960FB6F894DEBF0FBECDBF29
:10203000DF91CF911F910F91FF90EF90DF90CF90A4
:102040000895F801F582E482B601808191810E94B1
:102050001019E8CFFC0180819181009711F00C9458
:1020600098170895CF92DF92EF92FF920F931F93EC
:10207000CF93DF9389EF96E00E94A103892B61F053
:1020800089EF96E00E9493038F3F910529F089EF35
:1020900096E00E947F03EECF89EF96E00E94A103B5
:1020A00008970CF456C089EF96E00E947F038F3F9B
:1020B000910509F04EC089EF96E00E9493038F3F8F
:1020C000910509F44FC089EF96E00E947F038C01CF
:1020D000909371058093700589EF96E00E947F03CD
:1020E00090936F0580936E05EC0123E0CC0FDD1F0C
:1020F0002A95E1F76E01C00ED11EC01BD10B2796A9
:1021000010E000E07C0121E0E222FF2489EF96E06C
:102110000E947F039E01201B310BE114F10419F48E
:1021200098012C0D3D1D30936D0520936C05E091B9
:102130006C05F0916D05E558FA4F2091FB05309143
:10214000FC05E20FF31F80830F5F1F4F0430110562
:10215000E9F6DF91CF911F910F91FF90EF90DF9003
:10216000CF90089589EF96E00E947F0389EF96E073
:102170000E947F03C82F89EF96E00E947F03D82F2B
:1021800089EF96E00E947F03C23A69F158F4C03AA1
:10219000C1F0C13AF1F6D093FF051092FE051092FE
:1021A000FD05D7CFC33A11F1C93A99F6F0E0E0E066
:1021B000DF91CF911F910F91FF90EF90DF90CF9023
:1021C00019948091FB059091FC05892B39F480E4EA
:1021D00090E09093FC058093FB05BBCF1092FC052B
:1021E0001092FB05B6CFD0931802B3CF6D2F90E0BD
:1021F00080E0DF91CF911F910F91FF90EF90DF90E2
:10220000CF900C944C160E94B70381110E9432109B
:1022100080E090E0892B29F00E94AD0381110E949B
:10222000000080E090E0892B49F080E090E0892B6D
:1022300029F00E94000081110E94000080E090E0DF
:10224000892B49F080E090E0892B29F00E94000062
:1022500081110C94000008951F920F920FB60F92F7
:1022600011240BB60F922F933F934F935F936F936D
:102270007F938F939F93AF93BF93EF93FF938CE5DF
:1022800096E00E94C103FF91EF91BF91AF919F91A2
:102290008F917F916F915F914F913F912F910F900F
:1022A0000BBE0F900FBE0F901F9018951F920F92AC
:1022B0000FB60F9211240BB60F922F938F939F930B
:1022C000EF93FF93E0916C06F0916D068081E091B1
:1022D0007206F091730682FD1DC090818091750693
:1022E0008F5F8F7320917606821741F0E09175061B
:1022F000F0E0E45AF94F958F80937506FF91EF91C6
:102300009F918F912F910F900BBE0F900FBE0F904A
:102310001F9018958081F2CF1F920F920FB60F92E7
:1023200011240BB60F922F933F934F935F936F93AC
:102330007F938F939F93AF93BF93EF93FF9389EF17
:1023400096E00E94C103FF91EF91BF91AF919F91E1
:102350008F917F916F915F914F913F912F910F904E
:102360000BBE0F900FBE0F901F9018951F920F92EB
:102370000FB60F9211240BB60F922F938F939F934A
:10238000EF93FF93E0910907F0910A078081E091B4
:102390000F07F091100782FD1DC0908180911207F8
:1023A0008F5F8F7320911307821741F0E09112071E
:1023B000F0E0E750F94F958F80931207FF91EF916E
:1023C0009F918F912F910F900BBE0F900FBE0F908A
:1023D0001F9018958081F2CF1F920F920FB60F9227
:1023E00011242F933F938F939F93AF93BF9380912B
:1023F000520690915306A0915406B0915506309123
:10240000740523E0230F2D3758F50196A11DB11D4A
:10241000209374058093520690935306A09354061C
:10242000B09355068091750590917605A09177053A
:10243000B09178050196A11DB11D8093750590930B
:102440007605A0937705B0937805BF91AF919F91E2
:102450008F913F912F910F900FBE0F901F90189565
:1024600026E8230F0296A11DB11DD2CFFC0183E205
:1024700092E09093A4078093A30789E292E091836E
:10248000808388E090E0938382839583848380ECCB
:1024900090E00E94FC169093AF078093AE07909354
:1024A000AA078093A907892B89F440E052EC61E0E8
:1024B00070E089EF96E00E94E00083E395E00E94DF
:1024C0006D0F8BE495E00E946D0FFFCF0895ECE552
:1024D000F6E01382128248EE53E060E070E044833D
:1024E00055836683778385E295E0918380832DEC25
:1024F00030E0358724872CEC30E03787268728ECBE
:1025000030E0318B208B29EC30E0338B228B2AECAE
:1025100030E0358B248B2EEC30E0378B268B118E00
:10252000128E138E148EE9EFF6E01382128244832A
:102530005583668377839183808385EC90E09587CC
:10254000848784EC90E09787868780EC90E0918B7D
:10255000808B81EC90E0938B828B82EC90E0958B6A
:10256000848B86EC90E0978B868B118E128E138E67
:10257000148EE6E9F7E08FEF8083128211821486D1
:1025800013868FEF9FEFDC0187839087A187B28747
:10259000E7E7F8E021E0208380E490E09283818304
:1025A00087EB97E09483838347E758E0568345831E
:1025B000E0EBF7E0208321E430E032832183948351
:1025C00083838AE798E09683858361E083EA97E0D6
:1025D0000C943612CF93DF93CDB7DEB7AF970FB61B
:1025E000F894DEBF0FBECDBF789484B5826084BD01
:1025F00084B5816084BD85B5826085BD85B5816007
:1026000085BD80916E00816080936E001092810084
:10261000809181008260809381008091810081603F
:102620008093810080918000816080938000809100
:10263000B10084608093B1008091B000816080938C
:10264000B000809191008260809391008091910010
:1026500081608093910080919000816080939000D0
:102660008091A10082608093A1008091A10081608F
:102670008093A1008091A00081608093A000809150
:1026800021018260809321018091210181608093EA
:1026900021018091200181608093200180917A0046
:1026A000846080937A0080917A00826080937A00BF
:1026B00080917A00816080937A0080917A008068AE
:1026C00080937A001092C10040E855E260E070E02B
:1026D00089EF96E00E94E00040E855E260E070E09B
:1026E0008CE596E00E94E00063E0CE0101960E9436
:1026F000E20F61E0CE0182960E94E20F1BA61AA6AD
:102700001DA61CA61FA61EA67E012AE2E20EF11C33
:102710006EE070E0C7010E947C0F811123C1C701E8
:102720000E94D00F4EA15FA16AA17BA1C7010E94A8
:10273000A40F811103C0C7010E94D00F41E050E0F7
:102740006DE575E0C7010E94A40F811103C0C701A8
:102750000E94D00F4D815E8169817A81C7010E94FC
:10276000A40F811103C0C7010E94D00F4CE050E0BC
:102770006FE575E0C7010E94A40F811103C0C70176
:102780000E94D00F4EA55FA56AA57BA589EF96E0B4
:102790000E9443038BE495E00E946D0FC7010E94E5
:1027A0002A10CE0182960E942A10CE0101960E9424
:1027B0002A102091A5073091A6078091A707909134
:1027C000A807289FB001299F700D389F700D112414
:1027D0008091A9079091AA070E9472018091180226
:1027E0008093960797E09093050680E28093060613
:1027F0008FE7809307062FE232E030930B06209399
:102800000A0685E08093040610922F0681E08093EB
:1028100008069093090623EA37E0309303062093D5
:10282000020610920D0610920C06109211061092DC
:10283000100627E030E030930F0620930E06309309
:1028400013062093120610921B0610921A069FEF91
:10285000909324069093220610922E0610922D0635
:1028600010922C0610922B0610922A06109229061E
:1028700010922806809330061092230690E080E0A4
:102880000E944416823009F478C0833009F478C07D
:10289000813031F48CE290E090931B0680931A060D
:1028A00000E012E087E1C82ED12C332433948091CC
:1028B000790590917A05853691050CF069C00E94E2
:1028C000E604019609F05FC0109315060093140604
:1028D000D0921706C092160610921F0610921E067E
:1028E00010921D0610921C061092190610921806DE
:1028F00010922C0610922B0610922A06109229068E
:10290000309230060E94E6040E9450042B013C01E4
:10291000B4E68B2E912CA12CB12C0E94500464198A
:10292000750986099709683E734081059105A8F3EA
:10293000B1E08B1A9108A108B108E8EE4E0EE3E071
:102940005E1E611C711C81149104A104B10429F75D
:102950008091790590917A05019690937A058093FC
:102960007905A5CF8EE090E09FA78EA76EE475E075
:102970008AA59BA50E941019D5CE88E390E08CCF44
:1029800084E190E089CF809196070E94B40EBCCF7D
:1029900060E470E080917A0890917B080E94720157
:1029A000809118028093960719821A821B82809167
:1029B000990790919A07A0919B07B0919C07892B4A
:1029C0008A2B8B2BD9F00E94500400914E06109157
:1029D0004F062091500630915106601B710B820BFF
:1029E000930B0091990710919A0720919B073091C2
:1029F0009C076017710782079307C8F20E94500472
:102A000060934E0670934F06809350069093510644
:102A1000E091A107F091A207B12C309759F04091B5
:102A20009D0750919E0760919F077091A00780E0DD
:102A30001995B82EC0904C06D0904D06C114D10403
:102A400071F1D6011C96AC901C97809197079091DC
:102A500098078436910510F41C961C92D601ED91CE
:102A6000FC9180809180A601475F5F4FB6016A5F4D
:102A70007F4F8B2D0E944B0EF601458556858B01AD
:102A8000282FBE016F5F7F4FC601F4011995D60153
:102A90001C96AC921C971496CD90DC90CFCF809171
:102AA0005606909157069C012F5F3F4F3093570673
:102AB00020935606499714F00E94240100914C0679
:102AC00010914D060115110509F050C0BB24BA94B0
:102AD00063E0A62E70EB772EE2ED6E2EFAE02F2E3D
:102AE000312C412C512CA0E48A2E912C809100068F
:102AF000909101069C012F5F3F4F30930106209378
:102B00000006892B09F045C019A618A6BAA2BBA2D7
:102B1000B1E0BCA3ADA27EA26FA2FE01B2966F018E
:102B2000EC14FD04B1F1D6012D916D0130E050E0BF
:102B300040E019A28E010F5D1F4FCA01B901A20129
:102B400091010E949816605DF80162938F01211532
:102B500031054105510589F7309719F0CF010E94E1
:102B60006D0F8BE495E00E946D0FDACFF801828142
:102B70009381009749F025853685B901660F771F47
:102B8000620F731F0E94E201D80114960D911C91EF
:102B900099CF8091FF05882309F441C02091FD055C
:102BA0003091FE05820F932F911D9093FE05809327
:102BB000FD050097A1F5A091FB05B091FC05A55876
:102BC000BA4FED912E2F30E0F901EE0FFF1FE20F0B
:102BD000F31FE153FB4F228131814081E0917A085C
:102BE000F0917B085091770857FF1CC0E81BF90B48
:102BF0004083318322830396803C910511F78091B5
:102C00001802809396070E94B40E8091FB05909164
:102C1000FC05892B51F49092FC058092FB050E94E3
:102C2000031164CFE80FF91FE3CF1092FC05109257
:102C3000FB05F5CFBB27FB015527AA27880F991F56
:102C4000AA1FA41710F0A41B83955051B9F7A05DDB
:102C5000AA3308F0A95DA193009779F7B111B19358
:102C60001192CB010C943416DC01FC01672F719199
:102C70007723E1F7329704C07C916D937083629162
:102C8000AE17BF07C8F30895F999FECF92BD81BD75
:102C9000F89A992780B50895262FF999FECF1FBA83
:102CA00092BD81BD20BD0FB6F894FA9AF99A0FBE75
:102CB000019608950E946516A59F900DB49F900DF2
:102CC000A49F800D911D11240895A29FB001B39F70
:102CD000C001A39F700D811D1124911DB29F700D25
:102CE000811D1124911D0895DB018F939F930E94F4
:102CF0005A16BF91AF91A29F800D911DA39F900D79
:102D0000B29F900D1124089597FB072E16F400949E
:102D100007D077FD09D00E94E81607FC05D03EF4E5
:102D2000909581959F4F0895709561957F4F089577
:102D3000A1E21A2EAA1BBB1BFD010DC0AA1FBB1FBF
:102D4000EE1FFF1FA217B307E407F50720F0A21B31
:102D5000B30BE40BF50B661F771F881F991F1A949E
:102D600069F760957095809590959B01AC01BD01C8
:102D7000CF010895052E97FB1EF400940E94D116F2
:102D800057FD07D00E94981607FC03D04EF40C9410
:102D9000D11650954095309521953F4F4F4F5F4F3D
:102DA000089590958095709561957F4F8F4F9F4FB7
:102DB0000895EE0FFF1F881F8BBF0790F691E02D3F
:102DC00019940E946516B7FF0895821B930B08950E
:102DD000AA1BBB1B51E107C0AA1FBB1FA617B70741
:102DE00010F0A61BB70B881F991F5A95A9F780955D
:102DF0009095BC01CD0108950F931F93CF93DF935E
:102E00008230910510F482E090E0E0918008F0912A
:102E1000810830E020E0B0E0A0E0309799F421157F
:102E2000310509F44AC0281B390B24303105D8F587
:102E30008A819B816115710589F1FB0193838283EE
:102E4000FE0111C040815181028113814817590749
:102E5000E0F04817590799F4109761F012960C9317
:102E6000129713961C933296CF01DF91CF911F9149
:102E70000F9108950093800810938108F4CF2115D5
:102E8000310551F04217530738F0A901DB019A01CF
:102E9000BD01DF01F801C1CFEF01F9CF90938108A7
:102EA00080938008CDCFFE01E20FF31F81939193B1
:102EB0002250310939832883D7CF20917E08309161
:102EC0007F08232B41F420911B0230911C02309388
:102ED0007F0820937E082091190230911A02211553
:102EE000310541F42DB73EB740911D0250911E02AD
:102EF000241B350BE0917E08F0917F08E217F30761
:102F0000A0F42E1B3F0B2817390778F0AC014E5F59
:102F10005F4F2417350748F04E0F5F1F50937F080F
:102F200040937E08819391939FCFF0E0E0E09CCFA7
:102F3000CF93DF930097E9F0FC013297138212825E
:102F4000A0918008B0918108ED0130E020E0109759
:102F5000A1F420813181820F931F20917E0830914E
:102F60007F082817390709F061C0F0937F08E093C4
:102F70007E08DF91CF910895EA01CE17DF07E8F5CB
:102F80004A815B819E0141155105B1F7E901FB833F
:102F9000EA8349915991C40FD51FEC17FD0761F4DD
:102FA000808191810296840F951FE901998388831E
:102FB000828193819B838A83F0E0E0E012968D9179
:102FC0009C9113970097B9F52D913C911197CD01E4
:102FD0000296820F931F20917E0830917F08281758
:102FE000390739F6309751F5109281081092800810
:102FF000B0937F08A0937E08BCCFD383C283408167
:103000005181840F951FC817D90761F44E5F5F4F38
:1030100088819981480F591F518340838A819B8100
:10302000938382832115310509F0B0CFF093810895
:10303000E09380089ECFFD01DC01C0CF1382128295
:10304000D7CF4F925F926F927F928F929F92AF9263
:10305000BF92CF92DF92EF92FF920F931F93CF9385
:10306000DF938C01009799F4CB01DF91CF911F91F1
:103070000F91FF90EF90DF90CF90BF90AF909F9017
:103080008F907F906F905F904F900C94FC16FC0196
:10309000E60FF71F9C0122503109E217F30708F4ED
:1030A000AEC0D901CD91DC911197C617D70720F199
:1030B000C530D10578F0CE0104978617970750F0F8
:1030C000C61BD70B2297C193D1936D937C93CF01ED
:1030D0000E949817C801DF91CF911F910F91FF9027
:1030E000EF90DF90CF90BF90AF909F908F907F90A8
:1030F0006F905F904F9008955B01AC1ABD0A4C0130
:103100008C0E9D1EA0918008B0918108512C412CFD
:10311000F12CE12C109731F580917E0890917F0879
:103120008815990509F05CC04616570608F058C086
:103130008091190290911A02009741F48DB79EB7C1
:1031400040911D0250911E02841B950BE817F90750
:1031500008F055C0F0937F08E0937E08F901718371
:103160006083B8CF8D919C91119712966C901297B5
:1031700013967C901397A815B90559F56C0142E098
:10318000C40ED11CCA14DB0420F1AC014A195B093E
:10319000DA011296159780F0628273825183408320
:1031A000D9016D937C93E114F10471F0D70113966A
:1031B000FC93EE9312978ECF22968C0F9D1FF901F0
:1031C00091838083F301EFCFF0938108E09380082F
:1031D00081CF4816590608F42C017D01D3019ACFFE
:1031E000CB010E94FC167C01009749F0AE01B801AA
:1031F0000E940719C8010E94981787016BCF10E041
:1032000000E068CF81E090E0F8940C941719FB017E
:10321000DC0102C001900D9241505040D8F7089552
:10322000FB01DC0101900D920020E1F70895F89474
:02323000FFCFCE
:10323200EF00FFFFFFFFFFF42020202069526163AF
:10324200696E67466C616700320000820880000088
:103252000000007A0F00000000560B0507207F00D7
:1032620000000000000020202020200020505050AC
:10327200000000005050F850F8500A207880700882
:10328200F020C8C810204098986090807890906094
:10329200102040000000001020404040201040203C
:1032A200101010204000A8702070A800002020F804
:1032B20020200000000060602040000000F80000B4
:1032C20000000000000060601010202020404070CC
:1032D20088C8A898887020602020202070708808F4
:1032E200102040F8F808103008887010305090F81C
:1032F2001010F880F008088870304080F0888870DC
:10330200F8081020202020708888708888707088C3
:103312008878081060006060006060006060006093
:10332200602040102040804020100000F800F8008B
:1033320000804020102040807088081020002070FB
:1033420088A8D8B0807020508888F88888F088884B
:10335200F08888F070888080808870E09088888803
:1033620090E0F88080F08080F8F88080F0808080A3
:10337200708880B8888878888888F88888887020DB
:103382002020202070080808081888708890A0C0A3
:10339200A09088808080808080F888D8A8A88888BB
:1033A200888888C8A898888870888888888870F0F3
:1033B200888888F0808070888888A89878F08888C3
:1033C200F0A0908870888070088870F820202020F3
:1033D20020208888888888887088888888885020F3
:1033E200888888A8A8A8508888502050888888880B
:1033F2008850202020F80810204080F8704040407B
:10340200404070404020202010107010101010100A
:103412007020508800000000000000000000F8400A
:10342200201000000000000070888898688080B03A
:10343200C88888F0000070888080700808689888C2
:10344200887800007088F880703040E0404040404A
:10345200788888986808708080B0C888888820003A
:103462006020202070100030101010608080889042
:10347200A0D088404040404040200000D0A8A8A8EA
:10348200A80000B0C888888800007088888870F01A
:103492008888C8B08080788888986808080000A06A
:1034A200D0808080000070807008F04040F0404082
:1034B20040300000888888986800008888885020FA
:1034C2000000A8A8A8A8500000885020508888882A
:1034D20088986808700000F8102040F810202040FA
:1034E20020201020202000202020402020102020FA
:1034F20040000048B0000000705050505050700022
:103502000000FFFFFFFF000000FF000000FFFFFFC1
:103512000000FFFFFF00FFFF2100373737370000B1
:1035220000370000003737370000373737003700E1
:103532000000007A0F7A0F7A0F4D0F490F480E00E4
:10354200000000050EC10DBF0D4D0F490F6F016C3C
:103552000B00000000E303430370033004A1037F68
:103562000393034D616C6C6F63204C45444D617451
:10357200726978204661696C6564000D0A002069F1
:10358200526163696E67466C61677320002E00208A
:0C3592005468616E6B7320796F75210026
:00000001FF
